{"abi":[{"type":"constructor","inputs":[{"name":"superRareToken","type":"address","internalType":"address"},{"name":"merkleRoot","type":"bytes32","internalType":"bytes32"}],"stateMutability":"nonpayable"},{"type":"function","name":"claim","inputs":[{"name":"amount","type":"uint256","internalType":"uint256"},{"name":"proof","type":"bytes32[]","internalType":"bytes32[]"}],"outputs":[],"stateMutability":"nonpayable"},{"type":"function","name":"currentClaimRoot","inputs":[],"outputs":[{"name":"","type":"bytes32","internalType":"bytes32"}],"stateMutability":"view"},{"type":"function","name":"currentRound","inputs":[],"outputs":[{"name":"","type":"uint256","internalType":"uint256"}],"stateMutability":"view"},{"type":"function","name":"getStakedBalance","inputs":[{"name":"staker","type":"address","internalType":"address"}],"outputs":[{"name":"","type":"uint256","internalType":"uint256"}],"stateMutability":"view"},{"type":"function","name":"lastClaimedRound","inputs":[{"name":"","type":"address","internalType":"address"}],"outputs":[{"name":"","type":"uint256","internalType":"uint256"}],"stateMutability":"view"},{"type":"function","name":"owner","inputs":[],"outputs":[{"name":"","type":"address","internalType":"address"}],"stateMutability":"view"},{"type":"function","name":"renounceOwnership","inputs":[],"outputs":[],"stateMutability":"nonpayable"},{"type":"function","name":"stake","inputs":[{"name":"amount","type":"uint256","internalType":"uint256"}],"outputs":[],"stateMutability":"nonpayable"},{"type":"function","name":"stakedAmount","inputs":[{"name":"","type":"address","internalType":"address"}],"outputs":[{"name":"","type":"uint256","internalType":"uint256"}],"stateMutability":"view"},{"type":"function","name":"token","inputs":[],"outputs":[{"name":"","type":"address","internalType":"address"}],"stateMutability":"view"},{"type":"function","name":"totalStaked","inputs":[],"outputs":[{"name":"","type":"uint256","internalType":"uint256"}],"stateMutability":"view"},{"type":"function","name":"transferOwnership","inputs":[{"name":"newOwner","type":"address","internalType":"address"}],"outputs":[],"stateMutability":"nonpayable"},{"type":"function","name":"unstake","inputs":[{"name":"amount","type":"uint256","internalType":"uint256"}],"outputs":[],"stateMutability":"nonpayable"},{"type":"function","name":"updateMerkleRoot","inputs":[{"name":"newRoot","type":"bytes32","internalType":"bytes32"}],"outputs":[],"stateMutability":"nonpayable"},{"type":"function","name":"updateTokenAddress","inputs":[{"name":"_newToken","type":"address","internalType":"address"}],"outputs":[],"stateMutability":"nonpayable"},{"type":"function","name":"verifyEntitled","inputs":[{"name":"recipient","type":"address","internalType":"address"},{"name":"value","type":"uint256","internalType":"uint256"},{"name":"proof","type":"bytes32[]","internalType":"bytes32[]"}],"outputs":[{"name":"","type":"bool","internalType":"bool"}],"stateMutability":"view"},{"type":"event","name":"NewClaimRootAdded","inputs":[{"name":"root","type":"bytes32","indexed":true,"internalType":"bytes32"},{"name":"round","type":"uint256","indexed":true,"internalType":"uint256"},{"name":"timestamp","type":"uint256","indexed":false,"internalType":"uint256"}],"anonymous":false},{"type":"event","name":"OwnershipTransferred","inputs":[{"name":"previousOwner","type":"address","indexed":true,"internalType":"address"},{"name":"newOwner","type":"address","indexed":true,"internalType":"address"}],"anonymous":false},{"type":"event","name":"Staked","inputs":[{"name":"staker","type":"address","indexed":true,"internalType":"address"},{"name":"amount","type":"uint256","indexed":false,"internalType":"uint256"},{"name":"timestamp","type":"uint256","indexed":false,"internalType":"uint256"}],"anonymous":false},{"type":"event","name":"TokensClaimed","inputs":[{"name":"root","type":"bytes32","indexed":true,"internalType":"bytes32"},{"name":"addr","type":"address","indexed":true,"internalType":"address"},{"name":"amount","type":"uint256","indexed":false,"internalType":"uint256"},{"name":"round","type":"uint256","indexed":false,"internalType":"uint256"}],"anonymous":false},{"type":"event","name":"Unstaked","inputs":[{"name":"staker","type":"address","indexed":true,"internalType":"address"},{"name":"amount","type":"uint256","indexed":false,"internalType":"uint256"},{"name":"timestamp","type":"uint256","indexed":false,"internalType":"uint256"}],"anonymous":false},{"type":"error","name":"AlreadyClaimed","inputs":[]},{"type":"error","name":"EmptyMerkleRoot","inputs":[]},{"type":"error","name":"InsufficientStakedBalance","inputs":[]},{"type":"error","name":"InvalidMerkleProof","inputs":[]},{"type":"error","name":"OwnableInvalidOwner","inputs":[{"name":"owner","type":"address","internalType":"address"}]},{"type":"error","name":"OwnableUnauthorizedAccount","inputs":[{"name":"account","type":"address","internalType":"address"}]},{"type":"error","name":"ReentrancyGuardReentrantCall","inputs":[]},{"type":"error","name":"SafeERC20FailedOperation","inputs":[{"name":"token","type":"address","internalType":"address"}]},{"type":"error","name":"ZeroStakeAmount","inputs":[]},{"type":"error","name":"ZeroTokenAddress","inputs":[]},{"type":"error","name":"ZeroUnstakeAmount","inputs":[]}],"bytecode":{"object":"0x608060405234801561000f575f5ffd5b50604051610cca380380610cca83398101604081905261002e91610157565b338061005357604051631e4fbdf760e01b81525f600482015260240160405180910390fd5b61005c81610108565b50600180556001600160a01b03821661008857604051636b093aad60e01b815260040160405180910390fd5b806100a6576040516385ac2b9960e01b815260040160405180910390fd5b600380546001600160a01b0319166001600160a01b03841617905560028190555f600481905560405142815282907f91c29cbb4a588bd83c10bb6790021858b7b6fb0a1a200aea99e82c63fa9fd4519060200160405180910390a3505061018e565b5f80546001600160a01b038381166001600160a01b0319831681178455604051919092169283917f8be0079c531659141344cd1fd0a4f28419497f9722a3daafe3b4186f6b6457e09190a35050565b5f5f60408385031215610168575f5ffd5b82516001600160a01b038116811461017e575f5ffd5b6020939093015192949293505050565b610b2f8061019b5f395ff3fe608060405234801561000f575f5ffd5b50600436106100fb575f3560e01c80638da5cb5b11610093578063ea7a703311610063578063ea7a70331461021b578063f2fde38b14610224578063f993185514610237578063fc0c546a14610256575f5ffd5b80638da5cb5b146101a25780638f76a1f7146101c6578063a694fc3a146101e5578063c3709caf146101f8575f5ffd5b80636691461a116100ce5780636691461a14610175578063715018a614610188578063817b1cd2146101905780638a19c8bc14610199575f5ffd5b80632e17de78146100ff5780632f52ebb7146101145780633a02a42d146101275780634783f0ef14610162575b5f5ffd5b61011261010d3660046108d7565b610267565b005b6101126101223660046108ee565b610356565b61014f610135366004610983565b6001600160a01b03165f9081526006602052604090205490565b6040519081526020015b60405180910390f35b6101126101703660046108d7565b610467565b610112610183366004610983565b6104e6565b610112610537565b61014f60075481565b61014f60045481565b5f546001600160a01b03165b6040516001600160a01b039091168152602001610159565b61014f6101d4366004610983565b60056020525f908152604090205481565b6101126101f33660046108d7565b61054a565b61020b6102063660046109b0565b6105fa565b6040519015158152602001610159565b61014f60025481565b610112610232366004610983565b61064f565b61014f610245366004610983565b60066020525f908152604090205481565b6003546001600160a01b03166101ae565b61026f61068e565b805f0361028f57604051632d3087f960e01b815260040160405180910390fd5b335f908152600660205260409020548111156102be576040516345a5c39960e11b815260040160405180910390fd5b335f90815260066020526040812080548392906102dc908490610aa7565b925050819055508060075f8282546102f49190610aa7565b9091555050600354610310906001600160a01b031633836106b8565b6040805182815242602082015233917f7fc4727e062e336010f2c282598ef5f14facb3de68cf8195c2f23e1454b2b74e910160405180910390a261035360018055565b50565b61035e61068e565b61039b33848484808060200260200160405190810160405280939291908181526020018383602002808284375f920191909152506105fa92505050565b6103b85760405163582f497d60e11b815260040160405180910390fd5b600454335f90815260056020526040902054106103e857604051630c8d9eab60e31b815260040160405180910390fd5b600454335f81815260056020526040902091909155600354610416916001600160a01b0390911690856106b8565b6002546004546040805186815260208101929092523392917f19c3d6d051ad5a83e527f1443dcef37d901099edcd26560404f5de0edc9d3eed910160405180910390a361046260018055565b505050565b61046f610717565b8061048d576040516385ac2b9960e01b815260040160405180910390fd5b600281905560048054905f6104a183610aba565b9190505550600454817f91c29cbb4a588bd83c10bb6790021858b7b6fb0a1a200aea99e82c63fa9fd451426040516104db91815260200190565b60405180910390a350565b6104ee610717565b6001600160a01b03811661051557604051636b093aad60e01b815260040160405180910390fd5b600380546001600160a01b0319166001600160a01b0392909216919091179055565b61053f610717565b6105485f610743565b565b805f0361056a5760405163f69a94d360e01b815260040160405180910390fd5b610582336003546001600160a01b0316903084610792565b335f90815260066020526040812080548392906105a0908490610ad2565b925050819055508060075f8282546105b89190610ad2565b90915550506040805182815242602082015233917f1449c6dd7851abc30abf37f57715f492010519147cc2652fbc38202c18a6ee90910160405180910390a250565b6040516bffffffffffffffffffffffff19606085901b166020820152603481018390525f90819060540160405160208183030381529060405280519060200120905061064681846107d1565b95945050505050565b610657610717565b6001600160a01b03811661068557604051631e4fbdf760e01b81525f60048201526024015b60405180910390fd5b61035381610743565b6002600154036106b157604051633ee5aeb560e01b815260040160405180910390fd5b6002600155565b6040516001600160a01b0383811660248301526044820183905261046291859182169063a9059cbb906064015b604051602081830303815290604052915060e01b6020820180516001600160e01b0383818316178352505050506107e8565b5f546001600160a01b031633146105485760405163118cdaa760e01b815233600482015260240161067c565b5f80546001600160a01b038381166001600160a01b0319831681178455604051919092169283917f8be0079c531659141344cd1fd0a4f28419497f9722a3daafe3b4186f6b6457e09190a35050565b6040516001600160a01b0384811660248301528381166044830152606482018390526107cb9186918216906323b872dd906084016106e5565b50505050565b5f6107df8260025485610854565b90505b92915050565b5f5f60205f8451602086015f885af180610807576040513d5f823e3d81fd5b50505f513d9150811561081e57806001141561082b565b6001600160a01b0384163b155b156107cb57604051635274afe760e01b81526001600160a01b038516600482015260240161067c565b5f826108608584610869565b14949350505050565b5f81815b84518110156108a3576108998286838151811061088c5761088c610ae5565b60200260200101516108ab565b915060010161086d565b509392505050565b5f8183106108c5575f8281526020849052604090206107df565b5f8381526020839052604090206107df565b5f602082840312156108e7575f5ffd5b5035919050565b5f5f5f60408486031215610900575f5ffd5b83359250602084013567ffffffffffffffff81111561091d575f5ffd5b8401601f8101861361092d575f5ffd5b803567ffffffffffffffff811115610943575f5ffd5b8660208260051b8401011115610957575f5ffd5b939660209190910195509293505050565b80356001600160a01b038116811461097e575f5ffd5b919050565b5f60208284031215610993575f5ffd5b6107df82610968565b634e487b7160e01b5f52604160045260245ffd5b5f5f5f606084860312156109c2575f5ffd5b6109cb84610968565b925060208401359150604084013567ffffffffffffffff8111156109ed575f5ffd5b8401601f810186136109fd575f5ffd5b803567ffffffffffffffff811115610a1757610a1761099c565b8060051b604051601f19603f830116810181811067ffffffffffffffff82111715610a4457610a4461099c565b604052918252602081840181019290810189841115610a61575f5ffd5b6020850194505b83851015610a8457843580825260209586019590935001610a68565b50809450505050509250925092565b634e487b7160e01b5f52601160045260245ffd5b818103818111156107e2576107e2610a93565b5f60018201610acb57610acb610a93565b5060010190565b808201808211156107e2576107e2610a93565b634e487b7160e01b5f52603260045260245ffdfea264697066735822122029b174ede8f343861cad277c484c7dc2c9fbb61cc6a70a79fa05ce604d3f8a9e64736f6c634300081c0033","linkReferences":{}},"methodIdentifiers":{"claim(uint256,bytes32[])":"2f52ebb7","currentClaimRoot()":"ea7a7033","currentRound()":"8a19c8bc","getStakedBalance(address)":"3a02a42d","lastClaimedRound(address)":"8f76a1f7","owner()":"8da5cb5b","renounceOwnership()":"715018a6","stake(uint256)":"a694fc3a","stakedAmount(address)":"f9931855","token()":"fc0c546a","totalStaked()":"817b1cd2","transferOwnership(address)":"f2fde38b","unstake(uint256)":"2e17de78","updateMerkleRoot(bytes32)":"4783f0ef","updateTokenAddress(address)":"6691461a","verifyEntitled(address,uint256,bytes32[])":"c3709caf"},"id":34}